:1000000010C02AC029C097C037C026C025C024C050
:10001000ADC022C021C020C01FC044C01DC082C1CD
:100020009EC111241FBECFE5D1E0DEBFCDBF10E0E1
:10003000A0E6B0E0E2ECF4E002C005900D92A0363C
:10004000B107D9F720E0A0E6B0E001C01D92AD38BD
:10005000B207E1F714D133C2D3CFD89AD898DA9A3D
:10006000DA98DB9ADB98D79ADF98B89AC098B99A51
:10007000C198BA9AC29808951F920F920FB60F9224
:1000800011240F900FBE0F901F90189585B7877E93
:10009000886085BF85B7806285BF889585B78F7D6D
:1000A00085BF08951F920F920FB60F9211240F90E3
:1000B0000FBE0F901F90189516BE82E480BF81E09E
:1000C00083BF089513BE10BE0895329A339A389AAA
:1000D000369ADCDF24B185B130E0382B8FEF93E026
:1000E000821B930B0895CF93DF9300D0CDB7DEB77B
:1000F0000098379A0298E0DF89EF90E00197F1F7D6
:1001000000C00000E2DF9FE32DE083E0915020403B
:100110008040E1F700C00000D8DF89839A83D2DFF6
:10012000C298029A3798009A89819A810F900F900D
:10013000DF91CF9108951F920F920FB60F92112465
:100140008F939F938BB78F7D8BBF1EBC8CB59DB556
:10015000909362008093610081E0809360009F91A2
:100160008F910F900FBE0F901F9018951F920F92B6
:100170000FB60F9211248F939F938FEF9FEF909361
:1001800062008093610081E0809360009F918F9175
:100190000F900FBE0F901F9018950398609A87B329
:1001A000836087BBC098C19AC09AC198B89888B339
:1001B0008C7F88BB1DBC1CBC1FBC84E08EBD80B581
:1001C000816080BD8BB780628BBF10926000809190
:1001D000600081110BC085B7877E85BF85B78062BF
:1001E00085BF889585B78F7D85BFF1CF1EBC8BB746
:1001F0008F7D8BBF80B58E7F80BD6098039A809184
:100200006100909162000895009884E886B9389A58
:10021000029852DF2FE986E891E02150804090401B
:10022000E1F700C00000C0E0D0E073D08823E9F31C
:100230005DD0811106C057DF182F892F47D0812F3D
:1002400011C0813051F452D09FEF980F9E3F68F754
:10025000682F81E090E025D1E8CF823029F481E059
:1002600090E017D133D0E1CF833019F496DFEC0161
:10027000DCCF8430D1F68D2F29D08C2FF3CFEDDE5B
:1002800081E090E006D19FEF980F9E3F08F080E25A
:1002900006D080E886BD82E086BD7894B5DF1092F6
:1002A000770010927800109265001092660080939B
:1002B0008C00109289008AB380658ABBDC9ADE9A32
:1002C000D69888EA8DB980EF8EB90895909166002E
:1002D0009F5F9F70209165009217E1F3E92FF0E096
:1002E000E959FF4F808390936600089590917800BC
:1002F000809177009817D1F3809177008F5F8F708E
:1003000080937700E0917700F0E0E758FF4F80811D
:100310000895209178009091770081E0291301C021
:1003200080E008951F920F920FB60F9211248F93C1
:1003300010928B0010928A00D698CC9B02C0CE9B64
:10034000FCCFCE9902C088EF01C088EA8DB980EF5A
:100350008EB98F910F900FBE0F901F9018951F921E
:100360000F920FB60F9211242F933F934F935F93E9
:100370006F937F938F939F93AF93BF93EF93FF936D
:1003800080918A0090918B008230910509F455C0CC
:1003900028F40097C9F0019791F16AC08430910563
:1003A00009F454C030F1059709F062C080917800DB
:1003B0008F5F8F7080937800E09178008FB1F0E0CC
:1003C000E758FF4F80834AC08FB1882331F08FB147
:1003D000869590918C0089130FC0E0916300F09195
:1003E0006400309709F00995789B38C081E090E06F
:1003F00037C08FB1882319F088EA8DB91CC090915D
:10040000660080916500981769F0809165008F5FA4
:100410008F7080936500E0916500F0E0E959FF4F2F
:10042000808101C08FEF8FB982E090E090938B00C4
:1004300080938A00D69A80E71AC083E090E0909378
:100440008B0080938A00D6981FB810C085E090E09A
:1004500090938B0080938A00D698EDCF84E090E053
:1004600090938B0080938A001FB8D69A8EE78EB93E
:10047000FF91EF91BF91AF919F918F917F916F917C
:100480005F914F913F912F910F900FBE0F901F9052
:100490001895E199FECF1FBA8EBBE09A99278DB3CC
:1004A0000895262FE199FECF1CBA1FBA8EBB2DBB33
:1004B0000FB6F894E29AE19A0FBE01960895F89467
:0204C000FFCF6C
:00000001FF
